:1000000009C00FC00DC00CC00BC00AC009C008C099
:1000100007C006C011241FBECFE9CDBFD2D022C178
:10002000EFCF1F920F920FB60F9211248F93B299B8
:1000300009C086B7882319F086B7855008C016BE58
:10004000C3980CC086B78F3F39F086B78B5F86BFE9
:1000500088B3886188BB02C086BFC4988F910F9017
:100060000FBE0F901F901895B39930C088B3886168
:1000700088BB84EF91E020EF30E0F9013197F1F790
:100080000197D9F788B318BA84EF91E020EF30E0F8
:10009000F9013197F1F70197D9F788B3886188BBE7
:1000A00084EF91E020EF30E0F9013197F1F701970B
:1000B000D9F788B318BA84EF91E020EF30E0F90166
:1000C0003197F1F70197D9F7C49A0895B49930C0E0
:1000D00088B3886188BB84EF91E020EF30E0F901BC
:1000E0003197F1F70197D9F788B318BA84EF91E007
:1000F00020EF30E0F9013197F1F70197D9F788B394
:10010000886188BB84EF91E020EF30E0F9013197FE
:10011000F1F70197D9F788B318BA84EF91E020EF8F
:1001200030E0F9013197F1F70197D9F7C39A0895B3
:1001300088B3886188BB84EF91E020EF30E0F9015B
:100140003197F1F70197D9F788B318BA84EF91E0A6
:1001500020EF30E0F9013197F1F70197D9F788B333
:10016000886188BB84EF91E020EF30E0F90131979E
:10017000F1F70197D9F788B318BA84EF91E020EF2F
:1001800030E0F9013197F1F70197D9F788B3886129
:1001900088BB08958BB780648BBF85B7826085BFAD
:1001A00087B3847087BB87B3896187BB08958FB598
:1001B00080688FBD8FB583608FBD83B7836083BF39
:1001C0000895CF93DF93E6DFF2DF88B3886188BBC1
:1001D00081E090E031D086BF86B7882311F4C398C0
:1001E00008C086B78F3F11F4C49803C088B38861F4
:1001F00088BB789420E137E2C0EFD0E005C0CE01A3
:100200000197F1F72150304021153105C1F780E108
:1002100097E2FE013197F1F70197D9F781E090E07D
:100220000BD096B7891729F066B781E090E00CD023
:100230001BDF20E137E2E3CFE199FECF1FBA8EBB8F
:10024000E09A99278DB30895262FE199FECF1CBA25
:100250001FBA8EBB2DBB0FB6F894E29AE19A0FBE7F
:0802600001960895F894FFCF08
:00000001FF
